{
  "_format": "hh-sol-artifact-1",
  "contractName": "MusicPortal",
  "sourceName": "contracts/MusicPortal.sol",
  "abi": [
    {
      "inputs": [],
      "stateMutability": "payable",
      "type": "constructor"
    },
    {
      "inputs": [],
      "name": "getAllSongWaves",
      "outputs": [
        {
          "components": [
            {
              "internalType": "address",
              "name": "waver",
              "type": "address"
            },
            {
              "internalType": "string",
              "name": "link",
              "type": "string"
            },
            {
              "internalType": "uint256",
              "name": "timestamp",
              "type": "uint256"
            }
          ],
          "internalType": "struct MusicPortal.SongWave[]",
          "name": "",
          "type": "tuple[]"
        }
      ],
      "stateMutability": "view",
      "type": "function"
    },
    {
      "inputs": [],
      "name": "getTotalSongWaves",
      "outputs": [
        {
          "internalType": "uint256",
          "name": "",
          "type": "uint256"
        }
      ],
      "stateMutability": "view",
      "type": "function"
    },
    {
      "inputs": [
        {
          "internalType": "string",
          "name": "_link",
          "type": "string"
        }
      ],
      "name": "wave",
      "outputs": [],
      "stateMutability": "nonpayable",
      "type": "function"
    }
  ],
  "bytecode": "0x6080604052620000336040518060600160405280602a815260200162000dae602a91396200003960201b6200035f1760201c565b620001cd565b620000d98160405160240162000050919062000146565b6040516020818303038152906040527f41304fac000000000000000000000000000000000000000000000000000000007bffffffffffffffffffffffffffffffffffffffffffffffffffffffff19166020820180517bffffffffffffffffffffffffffffffffffffffffffffffffffffffff8381831617835250505050620000dc60201b60201c565b50565b60008151905060006a636f6e736f6c652e6c6f679050602083016000808483855afa5050505050565b600062000112826200016a565b6200011e818562000175565b93506200013081856020860162000186565b6200013b81620001bc565b840191505092915050565b6000602082019050818103600083015262000162818462000105565b905092915050565b600081519050919050565b600082825260208201905092915050565b60005b83811015620001a657808201518184015260208101905062000189565b83811115620001b6576000848401525b50505050565b6000601f19601f8301169050919050565b610bd180620001dd6000396000f3fe608060405234801561001057600080fd5b50600436106100415760003560e01c8063317b722d14610046578063449d46c014610064578063ef58d73514610080575b600080fd5b61004e61009e565b60405161005b919061082f565b60405180910390f35b61007e60048036038101906100799190610667565b6101ef565b005b610088610356565b60405161009591906108ef565b60405180910390f35b60606002805480602002602001604051908101604052809291908181526020016000905b828210156101e657838290600052602060002090600302016040518060600160405290816000820160009054906101000a900473ffffffffffffffffffffffffffffffffffffffff1673ffffffffffffffffffffffffffffffffffffffff1673ffffffffffffffffffffffffffffffffffffffff16815260200160018201805461014b90610a9a565b80601f016020809104026020016040519081016040528092919081815260200182805461017790610a9a565b80156101c45780601f10610199576101008083540402835291602001916101c4565b820191906000526020600020905b8154815290600101906020018083116101a757829003601f168201915b50505050508152602001600282015481525050815260200190600101906100c2565b50505050905090565b600160008082825461020191906109c6565b925050819055506102486040518060400160405280601e81526020017f25732077617665642077697468206c696e6b20746f20736f6e673a202473000081525033836103f8565b6102876040518060400160405280601181526020017f476f742074686973206c696e6b3a20257300000000000000000000000000000081525082610497565b600260405180606001604052803373ffffffffffffffffffffffffffffffffffffffff16815260200183815260200142815250908060018154018082558091505060019003906000526020600020906003020160009091909190915060008201518160000160006101000a81548173ffffffffffffffffffffffffffffffffffffffff021916908373ffffffffffffffffffffffffffffffffffffffff160217905550602082015181600101908051906020019061034692919061055c565b5060408201518160020155505050565b60008054905090565b6103f5816040516024016103739190610851565b6040516020818303038152906040527f41304fac000000000000000000000000000000000000000000000000000000007bffffffffffffffffffffffffffffffffffffffffffffffffffffffff19166020820180517bffffffffffffffffffffffffffffffffffffffffffffffffffffffff8381831617835250505050610533565b50565b61049283838360405160240161041093929190610873565b6040516020818303038152906040527fe0e9ad4f000000000000000000000000000000000000000000000000000000007bffffffffffffffffffffffffffffffffffffffffffffffffffffffff19166020820180517bffffffffffffffffffffffffffffffffffffffffffffffffffffffff8381831617835250505050610533565b505050565b61052f82826040516024016104ad9291906108b8565b6040516020818303038152906040527f4b5c4277000000000000000000000000000000000000000000000000000000007bffffffffffffffffffffffffffffffffffffffffffffffffffffffff19166020820180517bffffffffffffffffffffffffffffffffffffffffffffffffffffffff8381831617835250505050610533565b5050565b60008151905060006a636f6e736f6c652e6c6f679050602083016000808483855afa5050505050565b82805461056890610a9a565b90600052602060002090601f01602090048101928261058a57600085556105d1565b82601f106105a357805160ff19168380011785556105d1565b828001600101855582156105d1579182015b828111156105d05782518255916020019190600101906105b5565b5b5090506105de91906105e2565b5090565b5b808211156105fb5760008160009055506001016105e3565b5090565b600061061261060d8461092f565b61090a565b90508281526020810184848401111561062a57600080fd5b610635848285610a58565b509392505050565b600082601f83011261064e57600080fd5b813561065e8482602086016105ff565b91505092915050565b60006020828403121561067957600080fd5b600082013567ffffffffffffffff81111561069357600080fd5b61069f8482850161063d565b91505092915050565b60006106b483836107c1565b905092915050565b6106c581610a1c565b82525050565b6106d481610a1c565b82525050565b60006106e582610970565b6106ef8185610993565b93508360208202850161070185610960565b8060005b8581101561073d578484038952815161071e85826106a8565b945061072983610986565b925060208a01995050600181019050610705565b50829750879550505050505092915050565b600061075a8261097b565b61076481856109a4565b9350610774818560208601610a67565b61077d81610b8a565b840191505092915050565b60006107938261097b565b61079d81856109b5565b93506107ad818560208601610a67565b6107b681610b8a565b840191505092915050565b60006060830160008301516107d960008601826106bc565b50602083015184820360208601526107f1828261074f565b91505060408301516108066040860182610811565b508091505092915050565b61081a81610a4e565b82525050565b61082981610a4e565b82525050565b6000602082019050818103600083015261084981846106da565b905092915050565b6000602082019050818103600083015261086b8184610788565b905092915050565b6000606082019050818103600083015261088d8186610788565b905061089c60208301856106cb565b81810360408301526108ae8184610788565b9050949350505050565b600060408201905081810360008301526108d28185610788565b905081810360208301526108e68184610788565b90509392505050565b60006020820190506109046000830184610820565b92915050565b6000610914610925565b90506109208282610acc565b919050565b6000604051905090565b600067ffffffffffffffff82111561094a57610949610b5b565b5b61095382610b8a565b9050602081019050919050565b6000819050602082019050919050565b600081519050919050565b600081519050919050565b6000602082019050919050565b600082825260208201905092915050565b600082825260208201905092915050565b600082825260208201905092915050565b60006109d182610a4e565b91506109dc83610a4e565b9250827fffffffffffffffffffffffffffffffffffffffffffffffffffffffffffffffff03821115610a1157610a10610afd565b5b828201905092915050565b6000610a2782610a2e565b9050919050565b600073ffffffffffffffffffffffffffffffffffffffff82169050919050565b6000819050919050565b82818337600083830152505050565b60005b83811015610a85578082015181840152602081019050610a6a565b83811115610a94576000848401525b50505050565b60006002820490506001821680610ab257607f821691505b60208210811415610ac657610ac5610b2c565b5b50919050565b610ad582610b8a565b810181811067ffffffffffffffff82111715610af457610af3610b5b565b5b80604052505050565b7f4e487b7100000000000000000000000000000000000000000000000000000000600052601160045260246000fd5b7f4e487b7100000000000000000000000000000000000000000000000000000000600052602260045260246000fd5b7f4e487b7100000000000000000000000000000000000000000000000000000000600052604160045260246000fd5b6000601f19601f830116905091905056fea2646970667358221220edd1c51ba2c07951003f0d2f1718c039474729e0443e40021c90255cfc3adc8f64736f6c634300080400334d7573696320506f7274616c20636f6e747261637420686173206265656e20636f6e7374727563746564",
  "linkReferences": {},
  "deployedLinkReferences": {}
}